:020000040800F2
:1000000000000110098C07085D250008DD58020872
:10001000A98C0708A98C0708A98C07080000000014
:10002000000000000000000000000000F54800088B
:10003000F948000800000000FD48000845C6000817
:10004000A98C0708A98C0708A98C0708A98C0708A0
:10005000A98C0708A98C07089199000895990008B0
:10006000A98C0708999900089D990008392B000868
:100070004D2B0008612B0008752B0008892B000808
:100080009D2B0008B12B0008A98C0708A98C070834
:10009000A98C0708A98C0708A98C0708A199000852
:1000A000E52900080D2A0008352A0008D129000892
:1000B0005D2A0008712A0008852A0008A98C070813
:1000C000A98C0708A98C0708A98C0708A98C070820
:1000D000A98C0708612500086D250008792500080E
:1000E000A5990008A98C070801490008C12A000841
:1000F000E92A0008112B0008AD2A0008C52B0008CA
:10010000A98C0708A98C0708992A0008A98C070858
:100110008525000891250008A98C0708A98C0708E7
:10012000D92B0008ED2B0008012C0008152C000825
:10013000292C0008A98C0708A98C0708A98C070896
:10014000A98C0708A98C0708A98C07084D49000845
:100150003D2C0008512C0008652C0008A98C0708CC
:10016000A98C0708A98C0708A98C0708A98C07087F
:10017000A98C0708A98C0708A98C0708A98C07086F
:08018000A98C0708A98C0708EF
:10019000D0E907239A423CBFC1685218D01A704771
:1001A000D0E9092300699A4238BF1218D31A0138DE
:1001B000C01A7047D0E90902101AB0FA80F040095D
:1001C000704700BF0246036A4069D168C05C0133D2
:1001D0008B4228BF00231362704700BF436A8269C5
:1001E000D154436A0169426B01338B4228BF00231B
:1001F0004362D36843F08003D3607047436B188831
:1002000010F0100002D01A889B880120704700BFB0
:10021000436B99891A88890610B504460AD592B2AB
:10022000900607D5E26A002A2AD09888216B80B20E
:100230009047636B99891A88090692B210D5100607
:100240000ED5D4E909128A4215D0A1692069895CCA
:100250000132C9B29980B2FBF0F100FB1122A26217
:10026000998A1A88C90592B204D5D20744BF4FF6BD
:10027000F7721A8010BDDA6822F08002DA60EFE7C8
:100280009B88E2696169DBB28B54E269E168636B68
:100290000132B2FBF1F001FB1022E261CAE700BFBC
:1002A000036942681F2B10B40AD95468A3F1200CCB
:1002B000202101FA0CF1214207D15DF8044B70476F
:1002C0001468202199402142F7D081690024C86830
:1002D0000C7480684C68016821F00101016020689D
:1002E00094F805C00C4C818934F81C4089B221EA8D
:1002F00004011F2B818107D9A3F1200120238B400A
:100300005DF8044BD3607047202101FA03F35DF8D8
:10031000044B9360704700BF0CFA070882B00922B3
:10032000274B8DF80720DA68D00319D4DA68D10694
:1003300040D4DA68D20541D4DA6812F0E00F3BD13C
:10034000DB6813F0020F0CBF092308238DF8073078
:100350009DF80730012B0AD09DF8070002B07047C6
:1003600001238DF807309DF80730012BF4D1144A92
:1003700012E0D368DB0519D4D36813F0E00F17D16E
:10038000D36813F0020F0CBF092308238DF8073040
:100390009DF80730012BDFD1D168C8034FF001036E
:1003A000F4D4D368D906E4D50623EFE70223EDE7BA
:1003B0000723EBE70623D4E70723D2E70223D0E79E
:1003C000003C0240704700BF704700BF704700BF4D
:1003D00001207047034BD3E90003C01AC0F30A00A1
:1003E000704700BF20220020054AD2E9001399423D
:1003F000FDD0D1180133C3F30A03087A5360704764
:1004000020220020064BD3F8080800B97047D3F823
:100410000808A0F10500B0FA80F04009704700BF5D
:1004200020220020012380F849307047044BD3E993
:100430000003C01AC0F30A00C0F50060704700BF97
:100440002022002010B5D0F8E83504461B699847F3
:10045000032384F81231002010BD00BF08B5042228
:1004600090F81211D0F8E83580F8131180F81221B5
:10047000DB689847002008BD08B5D0F8E435DB6993
:1004800003B19847002008BD08B5D0F8E4351B6AD1
:100490009847002008BD00BF08B5D0F8E4355B6A76
:1004A0009847002008BD00BF70B5037805460E468A
:1004B0001446DBB1013077F023FD431CDBB201337E
:1004C0005B00DAB223800323327073702C7864B13E
:1004D0002846022300215A1CD2B2F454B15410F819
:1004E000014F0233DBB2002CF5D170BD022213465E
:1004F000E8E700BF10B5074C2068FF2808D0064980
:10050000D1F80C2801F5016100F082F8FF23236087
:10051000002010BD000000202022002043230148BD
:100520000B80704704000020122301480B807047A5
:1005300048000020042301480B8070475C00002025
:1005400010B5044C04480A462146FFF7ADFF20468B
:1005500010BD00BF382A0020A4AC080810B5044C18
:1005600004480A462146FFF79FFF204610BD00BF02
:10057000382A0020B0AC080810B5044C04480A46DC
:100580002146FFF791FF204610BD00BF382A00200A
:10059000B8AC080810B5044C04480A462146FFF7D9
:1005A00083FF204610BD00BF382A0020C4AC0808D5
:1005B00010B5044C04480A462146FFF775FF204653
:1005C00010BD00BF382A0020D0AC0808704700BF1B
:1005D000704700BF704700BF704700BF704700BF43
:1005E000704700BF704700BF044B00200522C3F8CE
:1005F0000828C3F81809C3F81C09704720220020F6
:10060000024B0020C3F80808704700BF20220020DA
:10061000212838B50C4625D0222816D0202812D102
:1006200089B1072A0FD1174DD5F81C3913B10968C4
:10063000002098472168A288A379C5F82019A5F859
:10064000242985F82639002038BD0029FBD0022A4C
:10065000F9D10C4BD3F81839002BF4D009880020BD
:100660009847F0E70029EED0072AECD1054BD3F8E4
:100670002019B3F8242993F826392160A280A371A8
:10068000E1E700BF2022002010B4114CD4E9003271
:100690009A1AC2F30A020A44B2F5006F13D871B174
:1006A00001444A1E013810F801CFE118904203F1CD
:1006B000010381F808C0C3F30A03F4D123600020CA
:1006C0005DF8044B704702205DF8044B704700BF93
:1006D0002022002010B58121044676F00FFA204632
:1006E000012176F00BFA2046822176F007FAFFF717
:1006F00087FF002010BD00BF034610B4D9691A69F6
:10070000002040F20114A3F844410860D1699C6DB7
:1007100021F002014FF0010CD161A3F89CC32060CD
:10072000D369044923F4003381F827095DF8044BA9
:10073000D361704720220020202301480B8070479E
:1007400060000020122301480B80704780000020C9
:10075000042301480B807047940000200A4608B526
:10076000054920B90548FFF79FFE034808BD044826
:10077000FFF79AFE004808BD482B0020E0AC0808AF
:10078000F8AC080810B5044C04480A462146FFF7A7
:100790008BFE204610BD00BF482B002010AD08087E
:1007A0001C48D0F8E837D0F8EC2710B59B184FF06C
:1007B0001A040C8001D1184810BD174AD0F8EA0776
:1007C00002F1100411464FF0000E4FEA137CB3F112
:1007D000204F34BF0CF1300C0CF1370C81F802C003
:1007E00081F803E002318C424FEA0313EDD102F1AC
:1007F00008040021030FB0F1204F34BF30333733EA
:100800009374D174023294424FEA0010F2D102483C
:1008100010BD00BF00F0FF1F9800002010B5044C71
:1008200004480A462146FFF73FFE204610BD00BFA0
:10083000482B002024AD080810B5044C04480A4693
:100840002146FFF731FE204610BD00BF482B002097
:1008500030AD0808034BD3F8442CB3F8483C13835D
:1008600000207047202200204FF40070034B1060DE
:10087000D3F8303D0B600020704700BF20220020DD
:10088000002070470120704701207047002070470A
:1008900010B41C6994420CD394460A4661448C42BD
:1008A000996938BFA4EB0C0261445DF8044B7BF0FE
:1008B00047BE5DF8044B7047704700BF704700BFEC
:1008C000D0ED007AD0ED036A30EE677AE6EE877AF3
:1008D000B0EE670AC0ED007A704700BF90ED017A74
:1008E000B5EE407AF1EE10FAF0EE407A09D19FEDC4
:1008F0000D7A60EE870AF7EE006A86EEA07A80ED48
:10090000017A31EE077A90ED000A80ED021AC1EE0D
:10091000076A77EEC07AC0ED036AA6EEA70A80EDFB
:10092000000A7047DB0FC940D0ED056AD0ED017AAF
:1009300090ED066AD0ED025A90ED035AC0ED066ABA
:10094000B0EE407A26EEA70AD0ED007A80ED057A67
:10095000A7EE870AD0ED077AA5EE860A90ED086A21
:10096000D0ED045AC0ED087AA5EE670AA5EEC60AD6
:1009700080ED070A704700BFF0EE406AD0ED007AC4
:1009800090ED050A90ED037A90ED016AD0ED025AE0
:10099000A7EEA60AD0ED047A27EE407A67EEC07A79
:1009A000A6EE267AE5EEA67A90ED066AC0ED067A06
:1009B00036EE076A80ED056A704700BF03685A1C6F
:1009C00002601970704700BF2DE9F04FD0E9003187
:1009D00085684A1C00EB8104F1EE407A92FBF3F645
:1009E000002D03FB1622426089B084ED200AC4ED7D
:1009F000407A40F346815A189FEDA46A0692591E28
:100A00006A1C079200F1800900F5807BF0EE466ACF
:100A100002224FF0010A884606998C1A94FBF3F1E2
:100A200003FB1144611C91FBF3F003FB101101EB7C
:100A30000A0009EB840E0BEB840C924590FBF3F457
:100A40009EED007ADCED007A03FB1400A3EB0206B6
:100A500080F2CD80CDE901ECCDE9032637460C4686
:100A60000546059031E0A34209EB850C0BEB8506AA
:100A700005F1010531DD09EB84000BEB840E224604
:100A8000013490ED006AD6ED005ADEED006AB4EE56
:100A9000C76AF1EE10FA07DD9CED005AB4EEC56AA4
:100AA000F1EE10FA00F38680F4EEE76AF1EE10FA48
:100AB00004DDF4EEE56AF1EE10FA13DC0137474588
:100AC000B0EE467A2EDAF0EE667AAB42CBDCA34289
:100AD0005E46CC464FF00105CDDCDE46484601249B
:100AE0000022CEE7F4EEE75AF1EE10FA58BFF0EE2E
:100AF000657ABAF1010FCEED007A18BF01200CD053
:100B00000132934200F10100CEBF0BEB82065E463C
:100B100000228245C6ED007AF2D101374745B0EE9A
:100B2000677AD0DBDDE901ECDDE903260598DEED2F
:100B3000006A9CED006A30E08B4209EB800C0BEB05
:100B4000800700F1010030DD09EB81050BEB810E20
:100B50000C46013195ED007AD7ED005ADEED007AB2
:100B6000B4EEE67AF1EE10FA06D59CED005AB4EE3A
:100B7000C57AF1EE10FA4DD4F0EE476AF4EEC67A7B
:100B8000F1EE10FA04D5F4EEE57AF1EE10FA5DD448
:100B9000B0EE676A0136B04529DD8342CCDC8B427A
:100BA0005F46CC464FF00100CEDCDE464D460121CB
:100BB0000024CFE7B4EEC75AF1EE10FA58BFB0EEFA
:100BC000457ABAF1010F80ED007A3FF46DAF10461F
:100BD00001260130834206F10106CEBF09EB800CED
:100BE000CC46002056458CED007AF2D15CE707999F
:100BF0000AF1010A8A4502F1020208F1FF387FF486
:100C00000BAF76EEC66AF6EE007A26EEA70A09B0BA
:100C1000BDE8F08FB4EEE65AF1EE10FAD8BFF0EE70
:100C2000456ABAF1010FC5ED006AA7D02546012734
:100C30000135AB4207F10107CEBF09EB850CCC466D
:100C400000255745CCED006AF2D197E7F4EEC65A7D
:100C5000F1EE10FAD8BFB0EE656ABAF1010F8EED71
:100C6000006A97D001250134A34205F10105CEBFEA
:100C70000BEB84075F460024554587ED006AF2D1EF
:100C800088E79FED020A09B0BDE8F08F0000000080
:100C900003685A1C02601970704700BF024BD3F8FA
:100CA000600D03681B6818472022002000797047F8
:100CB0000079C0F34010704700794009704700BFC9
:100CC00090F83C20034602F0FF0012B1002283F8A6
:100CD0003C2070474FF40063838170472DE9F8434F
:100CE00045697DB90768C7F30D0804460E46B8F19B
:100CF000000F0AD0D6F80080FFF710FB09283BD080
:100D00006FF001052846BDE8F883514B9F422AD376
:100D100003F580439F4224D303F580439F427FD352
:100D20004C4B9F427FD903F580339F427ED903F518
:100D300000339F427DD903F500339F427CD903F5F0
:100D400000339F4269D903F500339F4277D903F5F9
:100D500080239F4276D9B7F1016F76D305200CF03E
:100D60005FFA4FF00808FFF7D9FA092821D04FF0B1
:100D7000FF352846BDE8F883374E336923F44073C6
:100D80003361336943F400733361336943F0010322
:100D90003361C7F80080FFF7C1FA3369092823F0EF
:100DA00001033361ACD12368043323602846BDE8D6
:100DB000F883DFF8A490D9F8103023F44073C9F811
:100DC0001030D9F8103043F40073C9F81030D9F856
:100DD000103023F0F803C9F81030D9F8103043EA86
:100DE000080343F00203C9F81030D9F8103043F477
:100DF0008033C9F81030FFF791FAD9F8103023F09A
:100E00000203C9F81030D9F81030092823F0F8038C
:100E1000C9F810303FF46EAFA9E74FF03808A2E7E9
:100E20004FF010089FE74FF018089CE74FF020089C
:100E300099E74FF0280896E74FF0300893E74FF016
:100E4000400890E74FF048088DE74FF058088AE7D0
:100E500000400008FFFF0008003C02402DE9F0417F
:100E60000446D0E90030134483421DD80D4601EBFF
:100E70000208B2B104F10C07002601E0A84510D029
:100E800023695A1C2261234415F8011B1973042A93
:100E9000F4D139462046FFF721FFA845C4E9046094
:100EA000EED16069BDE8F0814FF0FF30FAE700BF96
:100EB0002DE9F0411F4E80460B4696F8642D002A1E
:100EC000FBD19BB343445F1E08F1FF38D6F8683D61
:100ED000D6F86C2D0133C3F30A039A4216D10BF0F6
:100EE000FDFB04460D460BF0F9FB001B61EB050111
:100EF000B0F57A7F71F10001F5D3D6F8683DD6F8E8
:100F00006C2D0133C3F30A039342E8D0D6F8682D61
:100F1000D6F8683D18F8011F32440133C3F30A03C1
:100F2000B84582F8701DC6F8683DCFD10020BDE8F5
:100F3000F08100BF202200200A4B10B5D3F80848EA
:100F400004B910BDD3F80838052BFAD1064C002A95
:100F50000846D4F878341146F3DDFFF7A9FFD4F83A
:100F6000783410BD202200201833002090F848204B
:100F7000531C0244DBB280F8483082F8341090F8F9
:100F800049204AB1132B06D9002280F848200C4A88
:100F9000D2F8081829B9704780F84820002BF6D1FC
:100FA0007047D2F80828052AF5D110B5054C194626
:100FB0003430D4F87834FFF77BFFD4F8783410BDA0
:100FC000202200201833002090F848100023A0F8B9
:100FD000483001B97047094BD3F80828002AF9D0E6
:100FE000D3F80838052BF5D110B5054C3430D4F8BA
:100FF0007834FFF75DFFD4F8783410BD202200204C
:10100000183300202DE9F047534E1F4606EB8003AE
:101010009C68002C00F09B8004F13E03A36104F562
:101020009F73E3614FF48073C4E904332836236867
:1010300066600546E16094F83D00A363914608F0C0
:1010400099FD804694F8440294F83CA0261D00289F
:1010500051D194F8450250BBD4F840326BBB3A07EB
:1010600031D419F0020F49D119F0010F5AD1D4F837
:10107000483294F9471294F847221B010029DBB249
:101080000DDB3649881880F800335009012302F03F
:101090001F02934041F820303046BDE8F0873049C8
:1010A00002F00F02114430460B76BDE8F08772F073
:1010B000A5FFD4F84032002BD1D02A4A116B0B4344
:1010C00013633A07CDD50135EDB2B8F1000F05D065
:1010D00040F2067388F80850A8F80630FB0694F82A
:1010E00046222FD417F0200F0CBF32211221404688
:1010F00008F006FDBBE772F081FFAAE76B1CDBB2CC
:10110000B8F1000F05D088F8083040F20653A8F86F
:10111000063094F846224046022108F0F1FC19F00E
:10112000010FA4D0504608F025FD0135EDB218B1ED
:1011300040F20663C380057294F84622022108F04B
:10114000DFFC94E70221404608F0DAFC8FE72646F0
:101150003046BDE8F08700BF0CFA070800E100E068
:10116000FCEC00E0003802402DE9F047038A848956
:10117000A4B21C4082B047D0814688464FF000455B
:1011800001F14C0701F13406B4FA84F325FA03F2B5
:10119000D24391B2A9F8101014401B3BB8F1000FD4
:1011A0005FD0042B2ED8DFE803F052483D32030015
:1011B000D8F80C30D9F82CA033B19B6823B11FFAB2
:1011C0008AF108F104009847D8F8243033B19B68BD
:1011D00023B11FFA8AF108F11C009847D8F83C3077
:1011E00033B19B6823B11FFA8AF108F134009847A4
:1011F000D8F8543033B19B6823B11FFA8AF108F153
:101200004C009847002CBFD102B0BDE8F087D8F859
:101210000C30D9F834105B6808F104009847002CB2
:10122000B2D1F1E7D8F82430D9F838105B6808F16A
:101230001C009847002CA7D1E6E7D8F83C30D9F835
:101240003C105B6830469847002C9DD1DCE7D8F80D
:101250005430D9F840105B6838469847002C93D139
:10126000D2E7042B07D8DFE803F01903140F0A00B4
:10127000D9F83C300193019B002C85D1C4E7D9F803
:101280002C300193019BF7E7D9F834300193019B8F
:10129000F2E7D9F838300193019BEDE7D9F84030F7
:1012A0000193019BE8E700BFF8B5264C94F8642D44
:1012B000012A034603D0022A09D00020F8BD224E9D
:1012C000D6F87C548DB984F8645D0020F8BD002503
:1012D00040F20112C0E95455C0E95655A0F8442126
:1012E00000F5A27175F006FDEDE7402D20D94027ED
:1012F000D4F86C1D154AC3F858710A44C3E9542246
:1013000040F20112A3F844210022C3F85C2103F546
:10131000A271184675F0EEFCD4F86C3D3B44ED1B11
:10132000C3F30A03C4F86C3DC6F87C540020F8BD32
:10133000AAB2402A01D02F46DAE7022284F8642DAF
:10134000D5E700BF2022002018330020902F002076
:1013500001EB810138B500EBC1010F4DB1F88C13E1
:1013600004462846FFF790F9E378C4F8A853012013
:1013700083424FF000024FF04001C4E9EC12A4F8A0
:101380009C0304F56771204608BFC4F8AC5375F0A0
:10139000B1FC002038BD00BF98370020F8B52A4CBA
:1013A000D4F8C0340F2B04D05A1CC4F8C024002039
:1013B000F8BD264D95F8643D0022C4F8C024002BEA
:1013C000F5D1D5F86C2DD5F8683D9A42EFD0D5F817
:1013D0006C2DD5F8683D9A422DD8D5F8686DD5F8B2
:1013E0006C3DF61A402E2BD8B3B2402B13BF3746B4
:1013F000402702230123D5F86C2D85F8643D144B5A
:10140000C0F858711344C0E9543340F20113A0F8F6
:1014100044310023C0F85C3100F5A27175F06AFC1C
:10142000D5F86C3D3B44F61BC3F30A03C5F86C3D8D
:10143000C4F87C64BBE7D5F86C6DC6F50066D1E7EF
:1014400001234027D7E700BF1833002020220020C7
:10145000902F002010B5324B93F8D02493F8E4C4B9
:10146000D3F8CC34044613B152EA0C0231D0012334
:10147000E06984F8463140F20112A4F84421026880
:101480002849002AA8BFC2F380739B0301EA1241D6
:1014900043F020030B4363F31F42BCF1020F0260D1
:1014A00000D010BDE278204BC4F8A8331F200021E3
:1014B000C4E9EC01012A4FF00101A4F89C1308BF14
:1014C000C4F8AC3304F567712046BDE8104075F0F0
:1014D00011BC012175F0D8FA0122E06984F8462197
:1014E00040F20113A4F84431016800290A460CDBDC
:1014F000C1F380730B4C9B0343F0200304EA1141BA
:101500000B4363F31F42026010BD064B03EA114315
:1015100043F4804343F0200363F31F42026010BD95
:1015200018330020DFBFFFFFDC3700202DE9F0413A
:10153000B0F8CC15D0F8CE35B0F8D255B0F8D0858B
:10154000C0F84051012284B080F8112101F01F023F
:10155000012A044600F2CC56ADF80810C1F3072E5C
:10156000CDF80A30ADF80E504FEA134C51D0022A94
:101570007746C9B29BB210D0002A55D1BEF1090FEF
:101580004BD8DFE81EF08900AD004A00C8004A00D1
:101590005C01DF004A001301330101F060012029E2
:1015A0005FFA8CF272D0012F00F0B881032F00F0A7
:1015B000A181AFBB90F81231022B00F0E381032B25
:1015C0002BD11CF0800F40F0E98102EB820200EB8E
:1015D000C20393F87623003A18BF0122C24D0223BA
:1015E0004FF48071C4E94E3384F81131C4F83031BE
:1015F000A4F81C1105F2F4430021C4F83411C4E925
:101600004A3304F58E712046C5F8F42475F010FBBA
:1016100006E090F81231032B0ED0204675F0FCF94D
:10162000002004B0BDE8F08101F0800175F02CFAD3
:10163000002004B0BDE8F0815FFA8CFCBCF1010F22
:10164000EBD8D0F8E43502A99B689847BDF80E3076
:10165000002BE5D1C4E94A33C4E94C3304214FF4EB
:10166000807284F81111A4F81C2104F58E712046B3
:1016700075F0DEFA636D9D4A1A61E278012ACFD1D6
:101680005E614FF0802219681A60C9E7D0F8E4352E
:1016900002A99B689847C3E790F81231023B012BDF
:1016A000BBD8914BD0F818210021C3F8EC1412B12B
:1016B0000222C3F8EC248E4A02234FF480700021EA
:1016C000C4E94C31A4F81C01C4E94E33C4E94A22F0
:1016D00084F8113104F58E71204675F0A9FA9FE760
:1016E00090F81221023A012A97D8012B98D1D0F80C
:1016F000E43500259B68C0F8185102A998470422D8
:101700004FF48073C4E94A55C4E94C5584F811215B
:10171000A4F81C31A9E7012B00F03B81022B7FF4D8
:101720007FAF5FFA8CF3002B7FF47AAF03694FEA47
:101730001C22023A5B68032A00F2BD81DFE802F056
:10174000B6CED2D01E0A022EADF8065000F08A8125
:10175000032E00F04E81012E7FF45FAFD0F8EC3500
:1017600080781B680DF106019847BDF80630002B04
:101770003FF456AFBDF80E20002A3FF451AF93421C
:1017800028BF13464FF480720221A4F81C210022C6
:10179000C4E94A0084F81111C4E94E33C4E94C325B
:1017A00004F58E71204675F043FA39E7012D7FF478
:1017B00034AF90F81231022B00F00881032B7FF434
:1017C0002CAF4FF4807200F588730221A0F81C2121
:1017D000002280F81111C0E94E55C0E94A33C0E932
:1017E0004C5200F58E7175F023FA19E7DDB23E4FC9
:1017F000012D87F8E5543FF610AF90F81231022B17
:1018000000F0D880032B7FF408AF002D00F0358165
:1018100090F81011012910D0D0F8E4355B68984792
:1018200097F8E514D4F8E43584F810111B682046C5
:101830009847D4F8E8359B68984700230AE758EAA8
:1018400005027FF4EAAE90F8121103293FF4E5AEE9
:1018500003F07F0580F814510069114663F30A1103
:10186000036819430423016084F811314FF4807335
:10187000C4E94A22C4E94C22A4F81C3104F58E7153
:10188000204675F0D5F9636D184A1A61E278012A8D
:1018900006D0002D00F0FC80022384F81231BFE650
:1018A0005E614FF0802219681A60F2E702210E484B
:1018B00061F306130022C0F8F0340423C4E94A227D
:1018C000C4E94C2284F8113101224FF4807304F5ED
:1018D0008E7184F81621A4F81C31C8E60321E6E7CE
:1018E0000521E4E70421E2E718330020180008602E
:1018F0000438002090F81211022943D003297FF404
:101900008CAE23B9510602D0114675F0BDF8D4F85B
:10191000E4359B6802A9204698478EE790F812119B
:1019200002292FD003297FF478AE002B7FF478AE04
:1019300012F07F0181D01CF0800F40F0AD8002EBEF
:10194000820100EBC10181F8763381F875332823D9
:1019500081F8742303FB020300EB820193F87723E1
:10196000496D0B68023A012A23F400138CBFC3F3BC
:101970000072012262F31C73D4F8E4250B609368B3
:1019800002A9C8E753063FF44BAE114675F07CF848
:1019900046E6D0F8E425C0F81831F0E702F07F02FF
:1019A00002EB820200EBC20393F81E21003A18BF3B
:1019B000012213E6002D3FF4A2AE01210322D0F84C
:1019C000E43580F8101180F812212FE73B4A80F8A7
:1019D00011314FF480710023A0F81C11C0E94E555D
:1019E000C0E94A22C0E94C5300F58E7175F020F928
:1019F00016E6DBB2052B3FF610AEDFE803F02B2333
:101A00001B130B03D0F8EC3580789B690DF10601B0
:101A10009847AAE6D0F8EC3580785B690DF10601AD
:101A20009847A2E6D0F8EC3580781B690DF10601E5
:101A300098479AE6D0F8EC358078DB680DF106011E
:101A4000984792E6D0F8EC3580789B680DF1060156
:101A500098478AE6D0F8EC3580785B680DF106018E
:101A6000984782E6D0F8E43580789B6A0DF106014C
:101A700098474670C4F8F00577E60222D0F8E435BE
:101A800080F8122180F810515B682946984736E6A5
:101A9000012384F81231C3E5282202FB010080F8FB
:101AA0001C1104EB810180F81E3180F81DE190F8D3
:101AB0001F21896955E70121F9E600BF00380020A0
:101AC00010B5044629B990F81121032A0DD0002041
:101AD00010BDD0F8E4359B69002BF8D090F81221A6
:101AE000032AF4D19847002010BDD0F890230B466C
:101AF000D0F87C138A4219D9521AC0F8902394F86E
:101B000003C0D0F880038A4228BF0A46BCF1010F07
:101B100092B234D0C4E9E22304F55D71C4F88003C5
:101B2000A4F87433204675F083F8D0E7D0F8E43594
:101B30001B691BB190F81221032A1ED000234FF419
:101B400080720421C4E94A33C4E94C3384F811118A
:101B5000A4F81C2104F58E71204675F069F8636DB8
:101B60000D4A1A61E278012AB1D104F2CC545C61C9
:101B70004FF0802219681A60A9E79847DEE7084409
:101B8000C4E9E22304F55D71C4F88003A4F874335A
:101B9000C4F88403C6E700BF1800086038B50446DF
:101BA00049B990F81131022B11D094F81631012B5C
:101BB00039D0002038BDD0F8E4355B69002BF8D06F
:101BC00090F81221032AF4D19847002038BDD0F8AC
:101BD0003831D0F8242193422FD990F803C09B1AB2
:101BE000BCF1010F0D46C0F83831D0F828116ED085
:101BF0009BB2C0F830314FF48073C0E94A11C0F88D
:101C0000345100F58E71A0F81C3175F011F8C4E95B
:101C1000E255C4F8805304F55D71A4F8745320466E
:101C200075F006F8C1E73F4B2269D3F8F014516014
:101C3000002384F81631002038BDD0F83C31B3FBC6
:101C4000F2F502FB15350DBB9A421FD8D0F84021A2
:101C500093421BD24FF48073A0F81C3100F58E71B3
:101C6000C0E94A55C0E94C5574F0E2FFE378C4F886
:101C70004051012BC4E9E255C4F88053A4F87453D1
:101C800008BFC4F8845304F55D71C8E7D4F8E4359F
:101C9000DB681BB194F81221032A15D0E2780023E7
:101CA0000521012A84F81111C4E9E233C4F8803314
:101CB000A4F8743304F55D7124D0204674F0B8FFA5
:101CC000636D194A1A6170E720469847E6E79BB2B0
:101CD0001144C0F830314FF48073C0E94A11C0F8A4
:101CE000345100F58E71A0F81C3174F0A1FFC4E9E5
:101CF000E255C4F8805304F55D71A4F87453C4F838
:101D000084538CE7C4F88433204674F091FF636DEC
:101D10000548186104F2CC525A614FF080211A68CC
:101D2000196042E7183300201800086070B50B787E
:101D300013F060020D46044624D0202A04D0204629
:101D400074F06AFE022070BDCA8848781AB31B0678
:101D500040D5324E3146FEF75BFCEB884FF4807283
:101D60000221A4F81C21002284F81111C4E94E3389
:101D7000C4E94A66C4E94C3204F58E71204674F019
:101D800057FF06E04B780A2B10D00B2B08D0062B00
:101D9000D5D0002070BD02221144FEF739FCF8E7CF
:101DA0008B78C3BB1E4AC2F8F834F2E7022180F8F0
:101DB00011114FF48071A0F81C111A490123C0E9D8
:101DC0004A11C0E94E33C0E94C3200F58E7174F00F
:101DD0002FFFDEE71449154B0860E078C3F80C28A4
:101DE000002103F5016301284FF00305C4F88C13AB
:101DF000A4F87413C4E9E42284F81151C4F88823C8
:101E0000C4F8803304F55D7108BFC4F884332046FC
:101E100074F00EFFBDE774F0FFFDBAE7302A002032
:101E2000183300201038002000000020202200205D
:101E3000002310B519460446402274F08FFE80211D
:101E400020460023402274F089FED4F8E835A078BB
:101E5000012284F812215B689847002010BD00BF62
:101E600010B5022304464022812174F077FE2046FB
:101E700002234022012174F071FE20460323082230
:101E8000822174F06BFE104B0222A3F84C20FEF767
:101E9000ABFBE2780D4BC4F8A8334021C4F8B01373
:101EA000012A4FF000004FF00101C4F8B403A4F878
:101EB0009C13204604F5677108BFC4F8AC3374F076
:101EC00019FF002010BD00BF00000020983700203F
:101ED00030B5812183B0044674F010FE0121204604
:101EE00074F00CFE2A4900250223402281F827596C
:101EF0002046812174F032FE012102234022204637
:101F000074F02CFE234BD3F8FC2483F8E4541268BD
:101F1000284690470095009AE1681F4B42F0100256
:101F20000092009A0A610A690092013B02D0009A6D
:101F3000D006F8D400230193019B43F020030193C2
:101F4000019A154B012060F38A120192019A0A61ED
:101F50000A690192013B02D0019A9206F8D4E27814
:101F60000E4BC4F8A8331F200021C4E9EC01012A5C
:101F70004FF00101A4F89C13204604F5677108BFD7
:101F8000C4F8AC3374F0B6FE002003B030BD00BF1F
:101F90002022002018330020410D0300DC370020F0
:101FA0002DE9F843DDF820800F4615460021202258
:101FB00004461E467CF03AFBB8F1000F0CD0D8F86E
:101FC0000030E3811B0C2382D8F80430B8F80A20D3
:101FD000E3821B0C62822383384675F091FFEB0687
:101FE00019D4431EB8B107EB000C01E0013B12D33A
:101FF0001CF801EDBEF12E0FF8D1C01A421E032AC3
:10200000A8BF0322082B03F10109A8BF08239046AB
:10201000B9441A4606E008280246B946A8BF082275
:102020004FF000084FF020333946236063602046AC
:102030007AF086FA04F10800154B2381424649469E
:1020400083707AF07DFA611EE21D11F801CFACF1C8
:102050006103192B9CBFACF1200C81F800C09142A8
:10206000F3D104F10A0011F8013FA3F16102192A2A
:102070009CBF203B0B708142F5D118232373330C96
:10208000A382E572099B6683E361BDE8F88300BF24
:10209000202020002DE9F04FDFF858B4DBF8440C85
:1020A0000C46BBF8481C418385B0002B63D0134419
:1020B000174604F5FE7A99461FE0002F69D0DBF839
:1020C0003C3DBB4200F0CB80DBF8383DBB4200F02A
:1020D000FD80DBF8403DDBF8441DBB4250D8B942DF
:1020E00000F27581791A204671F03AFF01374F45A9
:1020F00004F500740AF5007A39D0DBF8483DBB429C
:10210000DBD8DBF8585DFB1A296BDA0802328A4209
:1021100003F0070602D3AB6B9A420BD9294610464F
:10212000029271F0EDFE029A0546002800F06F81E0
:10213000CBF8580D2B79002B40F02381D5F828805F
:10214000B8F1000F00F05C812B6BD21AEB6806EB44
:10215000C20203EB422220462B464FF400710137A6
:10216000C0474F4504F500740AF5007AC5D1DBF885
:10217000440CBBF8481C0183002005B0BDE8F08F7B
:10218000B942AFD94FF40072002120467CF04EFADC
:10219000ACE74FF40072394620467CF047FA8023C2
:1021A00084F8BE310C2384F8C231DBF8381DC54AEF
:1021B000DBF8303DC4F8C6119142C4F8CA3100F3CF
:1021C0000B81C14AC14D82FB010285FB01050A4416
:1021D000C817C0EB6212C0EB2530BD4D84F8C101B9
:1021E00085FB0265C2EB82168010891B013120F04D
:1021F0003F0015440843D117C1EBE5110A4484F8A8
:10220000BF21B04A84F8C001013B934200F3F08043
:10221000AD4AAE4882FB031280FB03101A44D91763
:10222000C1EB6212C1EB2031A94884F8C51180FBD3
:102230000250C2EB821589105B1B013321F03F0174
:1022400010441943D317C3EBE0131A4484F8C411A4
:1022500084F8C3214AF65523A4F8FE3146E74FF02F
:10226000FF3384F8EC3184F8ED3184F8EE3184F8F2
:10227000EF315223237063706123A37084F8E73138
:102280004123E37084F8E6317223002584F8E431B9
:1022900084F8E531DBF8503DC4F8E8314FF4F072D2
:1022A0002946201D7CF0C2F9552384F8FE316FF0D9
:1022B0005503C4F8F051C4F8F451C4F8F85184F847
:1022C000FC5184F8FD5184F8FF310FE74FF40072A0
:1022D000002120467CF0AAF97E4B03CB45F6EB03A8
:1022E00023809023C4F80710A37002220821F8234A
:1022F000C4F80300617322746375DBF8303D227308
:10230000A27384F82C20DBF8382D9B1A2362DBF8AB
:10231000402DDBF8443D9B1A63620023E372E373B4
:102320006377A377E37784F82D3084F82E3084F830
:102330002F3084F83130684BA361684BC4F84230C9
:102340003E232377012384F83030654A802384F8C4
:10235000403084F846104AF65521A4F8FE1103CA0D
:10236000604BC4F84700C4F84B1003CB1388A4F8A3
:102370004F309378C4F85200C4F8561084F85130A6
:10238000B4E64FF40072002120467CF04FF9002E95
:1023900044D12B6C04F12008002B7BD02B6B5249CD
:1023A0001122CDE900662046FFF7FAFD2B6C1A6C6E
:1023B000002A7ED01B6B4D49CDE9006640461122B4
:1023C000FFF7EEFD04F140084FF4E0736DE0F91AF9
:1023D000204671F0C5FD89E6FF2284F8C1214FF641
:1023E000FF72A4F8BF21374A013B93427FF710AF39
:1023F000FF2384F8C5314FF6FF73A4F8C33129E7F2
:1024000041464FF4007220467CF010F96EE6384ADF
:10241000231F43F8042F9A45FBD167E6D5E9102521
:102420003301002A43D0023B002D3FF45FAE013B55
:10243000AD6CF9D1A0464FF40073002D3FF456AEB9
:10244000CDE9027A08EB0306A24608E00024CDE9B4
:1024500000C4FFF7A5FDAD6CBDB1B04515D02C791A
:1024600029682B6B404605F11C0C112208F120084D
:10247000002CEBD16A792C6942F02102CDE900C42D
:10248000FFF78EFDAD6C002DE7D15446029FDDF8BD
:102490000CA02BE6CDE900663346DBF8341D08229C
:1024A0002046FFF77DFD4FF4F0736D6CC5E7013BEF
:1024B000BAE7CDE900660D49334640461122FFF7E1
:1024C0006FFD7FE7FF03FB0083200882975545419E
:1024D0008180808040AD08083F00FF0029940E0DE8
:1024E0004CAD080858AD080800B4080854B50808F1
:1024F000DEADBEEF202200208C4613460146624628
:1025000018464BF0A1BF00BF1049114BD1F88820ED
:1025100042F4700210B4C1F888201A680D4C0020F3
:1025200042F001021A6098601A6822F0847222F464
:1025300080321A605C601A68074C22F480221A60AC
:10254000D8608C605DF8044B704700BF00ED00E080
:10255000003802401030002400000008704700BF1F
:102560000148FDF755BE00BFB80000200148FDF747
:102570004FBE00BF040300200148FDF749BE00BF65
:10258000500500200148FDF743BE00BF9C07002016
:102590000148FDF73DBE00BFE8090020704700BFBD
:1025A00030B40C4C0022234604E001320A2A03F125
:1025B00014030CD093F804C08445F6D1DD68294299
:1025C00001D10029F1D1142303FB024000E00020D7
:1025D00030BC7047300C002038B5D0E9004007EE21
:1025E000902A0068324A334B2468D3F8F83C2468B8
:1025F000013990428DB210D002F5806290420CD029
:1026000002F57052904208D002F58062904204D0E8
:1026100002F58062904218BF5B0807EE103AF8EEB0
:10262000677AB8EE477ADFED246A87EE270A30EE44
:10263000260A77F0EFFA1E492388421E8C4292B296
:102640009BB21AD01D498C4217D0B4F1804F1FD0D5
:10265000A1F580318C421BD001F580618C4217D0EE
:1026600001F580618C4213D015498C4219D1238029
:102670000123E5622285A38238BD23F45C739BB2FB
:1026800023800023E562228523860123A38238BDAF
:1026900023F45C739BB223800123E5622285A3822D
:1026A00038BD08498C42E2D023F440739BB2DEE788
:1026B00000000140000000200AD7233C0004014034
:1026C000001000400014004070B54268937903F098
:1026D000020E13F004033AD175469C469E464FF411
:1026E000807001235479032C30D8DFE804F08E6227
:1026F00002361468704E228C22F480721204120C7E
:102700002284228C22F4007212042B43120CA5881E
:1027100042EA0322A38B23F073031B041B0CB44275
:10272000ADB243F0600300F09B8006F58066B442D2
:1027300000F09680A580A383E1632284A38B23F01D
:1027400008031B041B0C43F00803A38370BD002087
:1027500005464FF0040C0346C4E71268564E148C2D
:1027600024F480542404240C1484148C24F4005481
:1027700024042B43240C958844EA0334938B23F4DC
:10278000E6431B041B0CB242ADB243F4C04375D008
:1027900006F58066B24271D09580938311641484EB
:1027A000938B23F400631B041B0C43F4006393839B
:1027B00070BD1468404E228C22F010021204120CDC
:1027C0002284228C22F0200212042B43120CA588B2
:1027D00042EA0312238B23F4E6431B041B0CB4428E
:1027E000ADB243F4C04359D006F58066B44255D02B
:1027F000A5802383A1632284238B23F400631B041D
:102800001B0C43F40063238370BD1268148C24F006
:1028100001042404240C1484148C968824F00204EB
:1028200024042B43240C1C43138B234D23F07303EC
:102830001B041B0CAA42B6B243F0600323D005F57B
:102840008065AA421FD09680138351631484138B32
:1028500023F008031B041B0C43F00803138370BD13
:1028600022F4006242EA0E2222F4806292B225F43F
:10287000405542EA0C2245EA00155BE725F4804505
:1028800045EA801588E726F4407606434FF6F37054
:10289000204040EA0E0040EA0C04D4E722F0800217
:1028A00042EA0E1222F0400292B225F4406542EA5A
:1028B0000C1245EA80059BE700000140426853790D
:1028C000032B0FD8DFE803F00B0805021068403037
:1028D000704710683C307047106838307047106897
:1028E000343070470020704770B4EFF3118210232A
:1028F00083F31288C4684668A5682B6823F0010337
:102900002B603568114B767933F81660AB899BB232
:1029100023EA0603AB81236965681F2B11D9203B8D
:10292000202404FA03F3EB60D3B283F31188C36865
:102930009B6859601A68012422431A60047470BCB1
:102940007047202404FA03F3AB60EDE70CFA0708A4
:1029500003681A7D012A04BF02221A7593F82C100D
:102960000CBF4FF40072002201291BD093F84410D1
:10297000012905D093F85C10012920D02ABB7047AB
:10298000022183F8441093F85C10012942F400629C
:1029900015D043681B6800215962998989B20A439E
:1029A0009A817047022183F82C1093F84410012972
:1029B00042F48062E4D093F85C100129E9D102214D
:1029C00083F85C1042F48052E3E74FF40072E0E7D2
:1029D000024B0348D3F80015FEF7C6BB183300209E
:1029E0000000014010B5064C0648D4F80015FEF76B
:1029F000BBFBD4F820150448BDE81040FEF7B4BB7B
:102A000018330020000001400040014010B5064C82
:102A10000648D4F80015FEF7A7FBD4F8241504489F
:102A2000BDE81040FEF7A0BB1833002000000140B5
:102A30000044014010B5064C0648D4F80015FEF7D6
:102A400093FBD4F828150448BDE81040FEF78CBB72
:102A5000183300200000014000480140034B4FF0B4
:102A60008040D3F80415FEF77FBB00BF1833002069
:102A7000024B0348D3F80815FEF776BB1833002045
:102A800000040040024B0348D3F80C15FEF76CBB62
:102A90001833002000080040024B0348D3F81015FB
:102AA000FEF762BB18330020000C0040024B0348C5
:102AB000D3F81C15FEF758BB183300200004014062
:102AC00010B5064C0648D4F81C15FEF74DFBD4F89B
:102AD0002C150448BDE81040FEF746BB1833002013
:102AE000000401400018004010B5064C0648D4F818
:102AF0001C15FEF739FBD4F830150448BDE810402A
:102B0000FEF732BB1833002000040140001C0040D7
:102B100010B5064C0648D4F81C15FEF725FBD4F872
:102B200034150448BDE81040FEF71EBB18330020E2
:102B300000040140002000400348D0F8083D13B1D4
:102B400000F6FC4018477047000000200348D0F80A
:102B5000283D13B100F61C501847704700000020B4
:102B60000348D0F8483D13B100F63C501847704771
:102B7000000000200348D0F8683D13B100F65C5017
:102B800018477047000000200348D0F8883D13B173
:102B900000F67C5018477047000000200348D0F82A
:102BA000A83D13B100F69C50184770470000002064
:102BB0000348D0F8C83D13B100F6BC501847704721
:102BC000000000200348D0F8E83D13B100F6DC50C7
:102BD00018477047000000200348D0F8083E13B1A2
:102BE00000F6FC5018477047000000200348D0F85A
:102BF000283E13B100F61C60184770470000002003
:102C00000348D0F8483E13B100F63C6018477047BF
:102C1000000000200348D0F8683E13B100F65C6065
:102C200018477047000000200348D0F8883E13B1D1
:102C300000F67C6018477047000000200348D0F879
:102C4000A83E13B100F69C601847704700000020B2
:102C50000348D0F8C83E13B100F6BC60184770476F
:102C6000000000200348D0F8E83E13B100F6DC6015
:102C7000184770470000002002683649002310B44E
:102C800022F00102212488420260036043608360D5
:102C9000C3600361446138D02F4B98422ED02F4B34
:102CA00098423CD02E4B984240D02E4B984232D086
:102CB0002D4B984241D02D4B984246D02C4B9842F8
:102CC00017D02C4B98423CD02B4B984216D02B4B14
:102CD000984224D02A4B984228D02A4B98421AD0A6
:102CE000294B984229D0294B98422ED0284B984204
:102CF00008D14FF03D5243F8AC2C03E04FF474621E
:102D000043F8202C5DF8044B7047224B5DF8044BD0
:102D10003D229A607047204A43F8642CF2E74FF452
:102D200074125DF8044B43F8382C70474FF074620E
:102D30005DF8044B43F8502C7047184A43F87C2C3C
:102D4000E0E73D2243F8082CDCE7154A43F8942CD1
:102D5000D8E700BF10600240286002404060024097
:102D6000586002407060024088600240A0600240EB
:102D7000B86002401064024028640240406402408F
:102D8000586402407064024088640240A0640240BB
:102D9000B8640240006002403D000020400F002067
:102DA00000003D20214A936803F00C03042B10B46B
:102DB0003AD0082B1FD01E4B1C4C0360A1681D4A43
:102DC000C1F30311114491F85C10CB404360A1683A
:102DD000C1F38221114491F85C1023FA01F1816062
:102DE000A1685DF8044BC1F342310A4492F85C20BB
:102DF000D340C36070475368516813F4800F536821
:102E000014BF0D4A0A4AC3F3881301F03F01B2FB15
:102E1000F1F202FB03F3054A5268C2F301420132A8
:102E20005200B3FBF2F3C7E7034BC5E7003802409B
:102E30000024F4000CFA070800127A0070B5446B05
:102E40008668A38923F400531B041B0CA381857996
:102E500090F805C02B0303F40051C5F380000CF07B
:102E600001032A029B001CF0020F4FEA003002F41B
:102E7000806218BF43F0080302431A43238A9BB2BF
:102E800023F440530B432382A38923F4B05323F04C
:102E90000C031B041B0C1343A381A38A23F440736C
:102EA0001B041B0C84B0A3826846FFF77BFF234BF7
:102EB0009C4205D003F580639C4201D0029B00E058
:102EC000039BA2891E49120403EB83034CBF7600C7
:102ED000B60003EB8303B3FBF6F3A1FB0302A08967
:102EE00052096426000406FB12334FEA02121CD476
:102EF0001B013233A1FB0313C3F3431313439BB2F0
:102F000023812A07A38A0AD59BB243F00803A38230
:102F1000A3899BB243F40053A38104B070BD23F096
:102F200008031B041B0CA382F2E7DB003233A1FB76
:102F30000313C3F342131343E1E700BF0010014042
:102F40001F85EB512DE9F8431D46344B9DF8206059
:102F50009DF8249098428846174646D0304B9842B8
:102F60004BD0304B984250D02F4B984235D02F4BFE
:102F700098422ED14B46324629460420FEF742F8AD
:102F800004460023C4E90B87C4E90733C4E90933C5
:102F90006671A56084F806902046FFF74FFFF107A1
:102FA000626B0ED4B30707D493899BB243F40053EA
:102FB00093812046BDE8F883D36843F08003D36053
:102FC000F2E74FF6DF731380D36843F02003D3603A
:102FD000E8E700242046BDE8F8834B463246294600
:102FE0000320FEF70FF80446CBE74B46324629464E
:102FF0000020FEF707F80446C3E74B463246294651
:103000000120FDF7FFFF0446BBE74B463246294649
:103010000220FDF7F7FF0446B3E700BF00100140B0
:103020000044004000480040004C00400050004078
:10303000816003E7417101E78171FFE62DE9F0430B
:10304000704F07EBC00985B005464FEAC00899F8F4
:10305000000F06F08FFD064699F8010F06F08AFD75
:10306000044699F8020F70F0C9FF6B1CDBB21EB169
:1030700040F60C123372F2801CB1237240F60C231E
:10308000E380304604223A2106F03AFD042220462D
:103090003A2106F035FD07EB08025B4BD2F8FC4EF7
:1030A0009C4200F08E80594B9C4200F09580584B1A
:1030B0009C4200F09C80474497F8033F022B32D09B
:1030C000032B7CD05349544F012B08BF0F46A688D1
:1030D0006846FFF767FE26F03F06029B4F4AB3FBA8
:1030E000F7F13604A2FB0323360C46EA9346A6808A
:1030F000228822F001021204120C22808AB2C1F34B
:103100000B019B0C09B942F001024FF4967101FBCF
:1031100003F34349A1FB03139B0901339BB242F420
:10312000004223841FE0A6886846FFF73BFE26F096
:103130003F06029A394B3604A3FB0213360C46EACB
:103140009346A680218821F001010904090C218001
:1031500034499209A1FB021292099B0C0133042A03
:10316000238438BF0422A28323882F4A9BB243F0D2
:1031700001032380238823F4816323F002031B04CB
:103180001B0C4FF4804143F480632380218123880A
:1031900023F080031B041B0C238023889BB202EBCB
:1031A000451243F0010323800121002382F83855A2
:1031B00082F8391582F83A3505B0BDE8F0831B4F27
:1031C00085E703F5F2331A6A42F400121A621A6AAA
:1031D00022F400121A626EE703F5F0331A6A42F421
:1031E00080021A621A6A22F480021A6263E703F507
:1031F000EE331A6A42F400021A621A6A22F40002DA
:103200001A6258E7000000200054004000580040B7
:10321000005C0040009F2400804F120083DE1B43AF
:10322000D34D6210632D3E0518330020C0270900DE
:103230002DE9F047924E90F900108046807806EB19
:10324000C1050138CC0090B0D5F8FC1E14282DD84B
:10325000DFE810F04C012001150055005F009E00D2
:10326000A600C301B6017A0084003C020402D70123
:10327000C000D0002F003700A30195015401888AB7
:103280000C8B81B27F4841EA0441884300F02081E1
:10329000D8E90201101A42F2107263EB0101904268
:1032A00071F1000102D3152388F8023010B0BDE897
:1032B000F08798F813000882C8E90223122088F8E2
:1032C0000200888A0C8B80B240EA04406E4C844332
:1032D00000F0B28000200E900F9001200F910E9010
:1032E0000E99002900F017820F9914310F910F9950
:1032F00009684905CCD5142388F80230D6E798F838
:10330000110000F0FE000882C8E90223052088F8B9
:103310000200888A0C8B80B240EA04405B4C8443F4
:1033200000F0A18000200090019001200191009008
:103330000099002900F0FB81019914310191019954
:1033400009684F05D7D4A3E798F8110040F00100B1
:103350000882C8E902230B2088F80200888A0C8BB7
:1033600080B240EA04404A4C84436DD0002004906F
:1033700005900120059104900499002900F0D18165
:10338000059914310591059909684D05B3D47FE776
:1033900098F813000882C8E90223072088F8020081
:1033A000888A0C8B80B240EA0440374C84435ED05C
:1033B00000200290039001200391029002990029BD
:1033C00000F0C181039914310391039909684E05F6
:1033D00091D45DE7088820F480600004000C088028
:1033E00098F8110000F0FE000882C8E902231020BE
:1033F00088F80200888A0C8B80B240EA0440234C93
:10340000844312D000200C900D9001200D910C905F
:103410000C99002900F091810D9914310D910D99AD
:10342000096848053FF567AF32E798F81330FF2B7E
:1034300006D198F810301BB1132388F8023035E715
:10344000112388F8023031E7D8F81400012800F081
:103450008F81022800F04382098B0E21C8E90223E4
:1034600088F8021022E7062388F802301EE7D8F811
:103470001400002800F06D81082388F8023015E759
:103480000000002001000300840007008200070004
:1034900002000300088820F400600004000C08808B
:1034A000088880B240F480600880088880B240F4C8
:1034B00080700880032088F80200888A0C8B81B213
:1034C000A94841EA04418843C8E902237FF4EEAEEB
:1034D00098F81230002B40F0CE8198F81330FF2B73
:1034E00000F03F82042388F80230DFE6098889056E
:1034F0003FF5CEAE002388F80230D7E6344494F886
:10350000000F06F037FB064694F8010F06F032FB79
:10351000964AB2F8983501339BB28246A2F89835A4
:1035200016B13368B2881A83BAF1000F04D0DAF802
:103530000030BAF804201A831121304604F0BAFC96
:103540001121504604F0B6FC4FF0090965272EB151
:103550003368B28819690A4240F02381013F00F0C4
:103560001D8109F0BBF804460D4609F0B7F8001BB1
:1035700061EB0501052871F10001F6D3E7E7088842
:1035800080B240F4007008804FF6FF30888201213D
:10359000C8E9022388F8021088E6D8F81400002849
:1035A00000F06D81D8F8184014F8016B0E820138D4
:1035B0001225C8E90504C8E9022388F8025075E617
:1035C000888A0C8B81B2684841EA044188437FF4C1
:1035D0005FAE0A2388F8023068E6088880B240F4BB
:1035E00080700880092088F80200888A0C8B81B2DC
:1035F0005D4841EA04418843C8E902237FF456AE9E
:10360000E7E7002401250A940B940B910A950A9888
:10361000002800F047810B9814300B900B9800683D
:1036200046077FF535AED8F81400032800F06D8109
:10363000022800F24381088820F480600004000C16
:103640000880088880B240F400700880098A88F8F1
:103650001C40C8E9022388F8025027E60020012414
:1036600008900990099108940898002800F01481A6
:103670000998143009900998006847077FF508AE4B
:10368000EFF31185102080F31288088880B240F48F
:1036900000700880D8F818000E8A471CC8F8187007
:1036A000EDB2067085F311880D8AD8F818106FF006
:1036B00001004E1CC8F818600D70C8E90223C8F854
:1036C000140088F81C4088F80240EFE500200690BE
:1036D0000790012007910690069C002C00F0E880DE
:1036E000079C14340794079C246864067FF5D0ADCA
:1036F0000C8AD8F818104D1CC8F818500C70D8F85F
:10370000141088F81C000139C8E90223C8F8141005
:1037100088F80200CAE50F9918310F910F990968CE
:10372000B6E505991831059105990968B0E5019943
:103730001831019101990968AAE50D9918310D9187
:103740000D990968A4E50399183103910399096853
:103750009EE5088880B240F4007008800121C8E925
:10376000022388F80210A1E50100030018330020AD
:10377000088820F480600004000C0880EFF31184B6
:10378000102080F31288088B088880B240F4007003
:10379000E4B2088084F311880C215FE616B1336827
:1037A000B2885A8308F09AFF04460D4608F096FF47
:1037B000001B61EB0501052871F10001F6D316B17C
:1037C0003368B2881A8308F089FF04460D4608F072
:1037D00085FF001B61EB0501052871F10001F6D39F
:1037E000B9F101097FF4B2AE16B13368B2885A83D9
:1037F00008F074FF04460D4608F070FF001B61EBF3
:103800000501052871F10001F6D3BAF1000F04D0CB
:10381000DAF80030BAF804205A8308F05FFF044653
:103820000D4608F05BFF001B61EB0501052871F1F7
:103830000001F6D316B13368B2881A8308F04EFF40
:1038400004460D4608F04AFF001B61EB0501052800
:1038500071F10001F6D3BAF1000F04D0DAF80030AC
:10386000BAF804201A8398F90000441C3FF442AED1
:10387000FFF7E4FB3EE60F2388F8023016E50888E0
:1038800080B240F4007008800121C8E9022388F862
:103890001C1088F8021009E5099918310991099955
:1038A0000968F5E40B9918310B910B990968EFE45D
:1038B00007991831079107990968E9E4D8F81800C1
:1038C000098A441CC8F818400170D8F81410C8F8C8
:1038D00008200139C8F81410C8F80C30E6E408884C
:1038E00080B240F400600880EFF31184102080F370
:1038F0001288088B088820F480600004000CE4B271
:10390000088084F311880D21A8E5088820F48060E0
:103910000004000C0880EFF31184102080F312885B
:10392000D8F818000D8A461CC8F818600570088879
:1039300080B240F40070E4B2088084F31188D8F8B3
:103940001800098A441CC8F818400170D8F81410EF
:103950000C200239C8E90223C8F8141088F80200C4
:10396000A4E498F81030002B3FF4BCAD31E600BF62
:1039700038B5184D9DF814E005EB40144FEA401C93
:1039800094F8390500B938BD490084F84B25C4F8CE
:103990004C3584F849150023049984F848E502223F
:1039A00005F5A76584F84A35C4F8501584F85435F0
:1039B00084F83A25654408F091FE02460B462846F5
:1039C000FFF736FC94F83A35002BF4D194F85405FF
:1039D00038BD00BF18330020F0B5044683B00D4653
:1039E0001746061D20680379012B1AD0022B02D03E
:1039F000002003B0F0BD8368DB0732464FF0FF01C3
:103A00005CBF3246FF2105F047F90028F0D015B120
:103A10002379DB07E6D4002FEBD023793B7003B08A
:103A2000F0BD8268417C90F9100002F00102CDE9FE
:103A30000062FF22FFF79CFFE7E700BF30B50446B6
:103A4000051D20680379012B83B017D0022B02D00B
:103A5000002003B030BD8368DB072A464FF0FF012A
:103A60005CBF2A46FF2105F017F90028F0D0237922
:103A7000DB07EED520680379012BE7D18268417C12
:103A800090F9100002F00102CDE90052FF22FFF789
:103A90006FFFEAE730B50246044652F8040B03799B
:103AA000012B83B00ED0022B01D0002008E0FF21B3
:103AB00005F0F2F80028F8D02079C04300F00100AA
:103AC00003B030BD8568417C90F91000009205F08C
:103AD00001050195FF22FFF74BFFEBE730B5B4225C
:103AE00083B00446FF21006804F0B2FA10B9002048
:103AF00003B030BD20680379012B04F1040514D014
:103B0000022BF4D18368DB072A464FF0FF015CBF2C
:103B10002A46FF2105F0C0F80028E8D02379DB070A
:103B2000E6D520680379012BEAD18268417C90F9BF
:103B3000100002F00102CDE90052FF22FFF718FF4A
:103B4000EAE700BF30B50A4683B00446A521006805
:103B500004F07EFA10B9002003B030BD206803796C
:103B6000012B04F1040514D0022BF4D18368DB0788
:103B70002A464FF0FF015CBF2A46FF2105F08CF872
:103B80000028E8D02379DB07E6D520680379012BEC
:103B9000EAD18268417C90F9100002F00102CDE97F
:103BA0000052FF22FFF7E4FEEAE700BF70B582B0E3
:103BB000CDE900230446FFF791FF10B9002002B0C1
:103BC00070BD20685522A52104F042FA0028F5D0E6
:103BD000251D20682A46FF2105F0B0F80028EDD009
:103BE0002379DB07F5D40DF1FF350DF1070615F844
:103BF000011F2046FFF7A6FF0028DFD0B542F6D10F
:103C0000DDE700BF002A35D0F0B5044683B00E468C
:103C10008F18051D16F8012B2068A52104F018FA4D
:103C200090B9002003B0F0BD8268417C90F910008B
:103C300002F00102CDE90052FF22FFF799FE0028B1
:103C4000EFD02379DB0710D520680379012BEBD067
:103C5000022BE6D18368DB072A464FF0FF015CBFE9
:103C60002A46FF2105F018F8E9E7B742D2D1012032
:103C700003B0F0BD0120704770B5962282B00446B3
:103C80000E460068FF2104F0E3F910B9002002B0ED
:103C900070BD251D20680379012B1FD0022BF5D1A3
:103CA0008368DB072A464FF0FF015CBF2A46FF21ED
:103CB00004F0F2FF0028E9D02379DB07EAD4E122FF
:103CC0002068114604F0C4F90028DFD0206832468D
:103CD000FF2102B0BDE8704005F030B88268417C39
:103CE00090F9100002F00102CDE90052FF22FFF727
:103CF0003FFEDFE7002A43D0F0B5044683B00E460E
:103D00008F18051D20689622FF2104F0A1F990B9B3
:103D1000002003B0F0BD8268417C90F9100002F0F1
:103D20000102CDE90052FF22FFF722FE0028EFD06A
:103D30002379DB0710D520680379012BEBD0022B08
:103D4000E6D18368DB072A464FF0FF015CBF2A46B5
:103D5000FF2104F0A1FFE9E7E1222068114604F009
:103D600077F90028D4D020683246FF2104F0E6FF1E
:103D70000028CDD00136B742C4D1012003B0F0BD38
:103D80000120704770B505460B460446164655F8A7
:103D9000040B82B087211A4604F05AF9206803798F
:103DA000012B1AD0022B02D0002002B070BD836814
:103DB000DB072A464FF0FF015CBF2A46FF2104F0D3
:103DC0006BFF0028F0D02379DA07E7D4002EECD07F
:103DD000C3F34013337002B070BD8268417C90F928
:103DE000100002F00102CDE90052FF22FFF7C0FDF2
:103DF000E7E700BF70B5782182B004461646006838
:103E0000002204F025F910B9002002B070BD251D74
:103E100020680379012B14D0022BF5D18368DB07CE
:103E20002A464FF0FF015CBF2A46FF2104F034FF11
:103E30000028E9D02379DA07EAD45B09337002B0AD
:103E400070BD8268417C90F9100002F00102CDE95A
:103E50000052FF22FFF78CFDEAE700BF30B5CC220D
:103E600083B00446A521006804F0F2F810B90020E0
:103E700003B030BD20680379012B04F1040514D090
:103E8000022BF4D18368DB072A464FF0FF015CBFA9
:103E90002A46FF2104F000FF0028E8D02379DB0741
:103EA000E6D520680379012BEAD18268417C90F93C
:103EB000100002F00102CDE90052FF22FFF758FD89
:103EC000EAE700BF30B5B42283B00446FF210068A2
:103ED00004F0BEF810B9002003B030BD251D2068E5
:103EE0000379012B22D0022BF5D18368DB072A4608
:103EF0004FF0FF015CBF2A46FF2104F0CDFE0028F1
:103F0000E9D02379DA07EAD4CC212046FFF71AFE5C
:103F10000028E0D002E02379DB07DDD520682A46BF
:103F2000FF2104F00BFF0028F5D1D4E78268417C23
:103F300090F9100002F00102CDE90052FF22FFF7D4
:103F400017FDDCE72DE9F04F8BB0CDE907230446E0
:103F5000002004908A460390251D049B079A204662
:103F6000DE0002EBC30BFFF7B9FD20B935E0237982
:103F700013F0010207D020682A46FF2104F0DEFE7C
:103F80000028F4D129E005929A07099040F1D880E1
:103F9000F0212046FFF7D6FDF8B1079BDDF814802D
:103FA000083E3344012606933746BAF1000F54D039
:103FB000082F52D807F1FF394AFA09F909F0010927
:103FC00020684FEAC912782104F042F828B120682D
:103FD0000379012B50D0022B06D00020089B049AB5
:103FE0001A700BB0BDE8F08F8368DB072A464FF0EC
:103FF000FF015CBF2A46FF2104F04EFE0028ECD0F2
:10400000237913F00102E2D1C3F3801CD9099B0686
:1040100046D5BCF1000F60D1BAF1000F5AD0082F7D
:1040200058D8894540F08880B9F1000F48D01BF876
:10403000083033430BF808307600013716F0FF06DE
:10404000FFB2B2D108F101085FFA88F8B8F1080FA1
:1040500043D00126BAF1000FAAD1049BC3B1039B40
:10406000BB4215D9069B13F808301E4214BF4FF00F
:1040700001094FF00009A3E78268417C90F9100024
:1040800002F00102CDE90052FF22FFF771FCB5E713
:10409000039BA3EB0709B9FA89F94FEA59198FE78E
:1040A000BAF1000F13D0082F11D8894596D1B9F174
:1040B000000FBCD1059BBCF1000F08BF3B46059328
:1040C0001BF8083023EA06030BF80830B4E7002990
:1040D000ADD1EFE70029AAD1F2E7402F06D8089B1F
:1040E000049A1B7893423FF638AF77E79BF8077046
:1040F0000BF1FF360BF1060B16F801CF082182EA0F
:104100000C0343F30003013923F0730383EA5202E3
:1041100011F0FF01D2B24FEA5C0CF0D1B345EBD104
:104120009742DCD1049B0133DBB20493059B002B47
:104130003FF454AF0393D2E7DDF8248040464DE7C7
:10414000804640464AE700BF10B504460068037940
:10415000012B84B02DD0022B01D0002027E08368F2
:1041600013F0010F02AA4FF0060314BF1F219F2175
:1041700004F0FEF80028F0D0BDF80810BDF80A20C1
:10418000BDF80C30C9BA07EE901AD2BAF8EEE76A59
:1041900007EE902ADBBAB8EEE77A07EE903AF8EE2F
:1041A000E77AC4ED046A84ED057AC4ED067A04B0BA
:1041B00010BD8368417C90F9100003F00103019366
:1041C00002AB00931F220623FFF7D2FBD2E700BF0A
:1041D00038B5184D9DF814E005EB40144FEA401C2B
:1041E00094F8390500B938BD84F84B25C4F84C352E
:1041F00001220023490005F5A76584F84A2584F8C3
:104200005435049A84F848E5022384F84915C4F823
:10421000502584F83A35654408F060FA02460B46AA
:104220002846FFF705F894F83A35002BF4D194F8B6
:10423000540538BD1833002000680379012B0BD0DA
:10424000022B01D0002070478368DB074FF0F0029B
:1042500019D5FF2103F0A6BE00B5826890F910C001
:10426000417C85B002F0010201920DF10F02009233
:104270006046FF224FF0F00C8DF80FC0FFF7A8FF4B
:1042800005B05DF804FB7F2103F08CBE70B50568B6
:104290002B79012B84B004460E4617D0022B02D096
:1042A000002004B070BDAB68E122DB074CBF1146B3
:1042B0006121284603F076FE0028F1D020683246BE
:1042C000FF2104B0BDE8704004F038BDAA68697CE5
:1042D00095F9100002F001020DF10F050192009511
:1042E000E1228DF80F20FFF773FFE5E770B5056851
:1042F0002B79012B84B004460E4618D0022B02D035
:10430000002004B070BDAB68DB074FF0C3024CBFA8
:10431000E1216121284603F045FE0028F0D0206805
:104320003246FF2104B0BDE8704004F007BDAA6822
:1043300095F91000697C02F0010201920DF10F0263
:104340000092C3228DF80F20E122FFF741FFE4E73E
:1043500000680379CA4341EA0211012BCAB209D0AD
:10436000022B01D0002070478368DB0717D5D221CC
:1043700003F018BE00B585B090F910C08DF80F207D
:104380008268417C02F001020DF10F00CDE90002CC
:10439000D2226046FFF71CFF05B05DF804FB5221F6
:1043A00003F000BE70B505682B79012B84B004467C
:1043B0000E461CD0022B02D0002004B070BDAB68AA
:1043C000DB074FF0F0024CBFE1216121284603F0EA
:1043D000E9FD0028F0D02246FF2152F8040B04F03A
:1043E000ADFC0028E8D02379337004B070BDAA6812
:1043F00095F91000697C02F0010201920DF10F02A3
:104400000092F0228DF80F20E122FFF7E1FEE0E7B5
:1044100000680379012B0BD0022B01D000207047DC
:104420008368DB074FF0B40219D5FF2103F0BABD52
:1044300000B5826890F910C0417C85B002F001029D
:1044400001920DF10F0200926046FF224FF0B40C72
:104450008DF80FC0FFF7BCFE05B05DF804FB7F21AF
:1044600003F0A0BD00680379012B0AD0022B01D014
:10447000002070478368DB070A4617D5A52103F0A3
:1044800091BD00B5826890F910C085B002F00102BC
:104490008DF80F10417C0DF10F00CDE90002A5222F
:1044A0006046FFF795FE05B05DF804FB252103F09B
:1044B00079BD00BF00680379012B0BD0022B01D01E
:1044C000002070478368DB074FF0960219D5FF2163
:1044D00003F068BD00B5826890F910C0417C85B0DA
:1044E00002F0010201920DF10F0200926046FF22DC
:1044F0004FF0960C8DF80FC0FFF76AFE05B05DF81F
:1045000004FB7F2103F04EBD00680379012B0AD024
:10451000022B01D0002070478368DB070A4617D5BD
:10452000872103F03FBD00B5826890F910C085B0C7
:1045300002F001028DF80F10417C0DF10F00CDE962
:10454000000287226046FFF743FE05B05DF804FBDA
:10455000072103F027BD00BF00680379C901012BC3
:10456000CAB206D0022B01D000207047782103F098
:1045700019BD00B585B090F910C08DF80F20826884
:10458000417C02F001020DF10F00CDE9000278221A
:104590006046FFF71DFE05B05DF804FB0068037977
:1045A000012B0BD0022B01D0002070478368DB0762
:1045B0004FF0550219D5A52103F0F4BC00B582686F
:1045C00090F910C0417C85B002F0010201920DF11A
:1045D0000F0200926046A5224FF0550C8DF80FC0D7
:1045E000FFF7F6FD05B05DF804FB252103F0DABC0A
:1045F000F0B589B00023904A02930393136843F403
:104600008033136003E0029BB3F5A04F09D0136819
:1046100003F400330393029B01330293039B002BAB
:10462000F1D0854B1B6813F4003318BF01230393AB
:10463000039B012B01D000BFFDE77F4B7F491A6C24
:104640007F4842F080521A640A6842F440420A608D
:104650009A689A609A6842F400429A609A6842F4B2
:10466000A0529A6058601A6842F080721A601A6804
:104670009001FCD5734A40F205711160996821F0F0
:1046800003019960996841F00201A2F58062996086
:10469000936803F00C03082BFAD1936803F00C0322
:1046A000042B00F0C680082B00F0AB80664A624BFA
:1046B00066499868664D674E674FC0F30310014422
:1046C000002491F86C10CA406449E9606449586F4D
:1046D000A960596BC6F8F82C21F080015963596F15
:1046E000604A614841F080715967196B0A431A6347
:1046F0005A6B5A639A6B9A631A6C5C490A431A6440
:10470000596C5B4A0A435A6448F2FF7123462246B9
:10471000CDE9004472F08AFE5648234622464FF601
:10472000FF71CDE9004472F081FE534823462246D2
:104730004FF6FF71CDE9004472F078FE4F482346F2
:1047400022464FF6FF71CDE9004472F06FFE4C48EF
:10475000234622464FF6FF71CDE9004472F066FE13
:104760004848234622464FF6FF71CDE9004472F0D7
:104770005DFE4548234622464FF6FF71CDE90044D1
:1047800072F054FE4148234622464FF6FF71CDE9B0
:10479000004472F04BFE234622464FF6FF713C4820
:1047A000CDE9004472F042FE04A8FEF7FBFAD5F80A
:1047B000FC200499D6F8F83C364842F08072C5F8DF
:1047C000FC20354AC2F8B00F5460106840F0010078
:1047D00010604FF47A72B3FBF2F3013BB3F1807FC8
:1047E0002E4AB1FBF2F2C7F89C2508D24FF0E02226
:1047F000F0215361072385F823109461136109B0F8
:10480000F0BD5168536852684902C2F388124CBF28
:1048100023490D4903F03F03B1FBF3F303FB02F21D
:10482000054B5B68C3F3014301335B00B2FBF3F25A
:104830003DE71B4A3BE700BF0038024000700040E4
:1048400008544007003C02400024F4000CFA07081A
:1048500000ED00E000000020183300200003FA05FE
:1048600000000008FF91670000000240FFC9FE1031
:10487000335707000004024000080240000C0240C9
:10488000001002400014024000180240001C0240C8
:104890000020024055CEACC5001000E040420F00A1
:1048A00000127A0082B0064B002201920193019B14
:1048B00003EB80030193019B196002B0704700BFB6
:1048C0005028004010B51C2005F054F91121044671
:1048D00003F0F0FA4CB12368A2885A83C82007F08D
:1048E0002BFF2368A2881A8310BDBDE81040C820A2
:1048F00007F022BF704700BF704700BF704700BF7E
:1049000010B5104C94F8AA3523B90F4B4FF4802200
:104910005A6110BD4FF0E022D2F8103D23F006039B
:10492000C2F8103DFDF7F0FDD4F8B0359B68DB0709
:10493000EBD5D4F8AC26136823F0030161F3070329
:104940001360E2E718330020003C01402DE9F04FEE
:10495000A34CD4F8AC355A69D5078BB002D50BB04F
:10496000BDE8F08F5A699B6912EA0301F7D0C1F3E1
:1049700007430803019300F1E180019B5D073FD4E9
:104980008807CEB203D5D4F8AC3502225A6100298B
:10499000C0F24A820A05C1F3072500F19981370761
:1049A00008D5904B9048D3F8203F9847D4F8AC35C1
:1049B00008225A61F60600F10F82E80600F1BE8176
:1049C000A80600F11781019BDA0609D5854B8648B8
:1049D000D3F8303F9847D4F8AC354FF480125A6181
:1049E000019B9B06BBD57F4B7F48D3F8343F98474C
:1049F000D4F8AC354FF400125A610BB0BDE8F08F1B
:104A0000D4F8B0359E69DB691E40B6B2002EB7D02F
:104A1000754D4FF0000B05F118080F46F00740F1F7
:104A20008280D4F8B015D8F8002008694B6B23FABF
:104A30000BF3DB01DBB203439068034013F0010981
:104A4000D8B200F00F824B6B012000FA0BF023EA82
:104A500000034B6301239360624B6348D3F8183F14
:104A60005FFA8BF1984794F8A335012B00F07E8212
:104A700019F0800F57D0D5E94CC1D5F82431D8F8BA
:104A800000E0ACEB01029342DEF8180028BF1346A9
:104A900080B20333B0EB930F45D9D4F8B03594F816
:104AA000A395CDE9026BBA4667469C46B94237D218
:104AB000D5F82431781A984228BF184600F1030B24
:104AC000D5F828314FEA9B0BB9F1000F10D182B213
:104AD00003329210D8F8B8600AD04946013153F831
:104AE000047B37608A42F9D1D5E94C71D5F8283179
:104AF000014403448F42C5F82831C5F83411DEF86B
:104B000018300AD195F81C01012202FA00F0DCF8F5
:104B1000342022EA0002CCF834209BB29B45C5D356
:104B2000DDE9026B574676080BF1010B05F128050C
:104B300008F104087FF472AF394621E7D4F8B035A4
:104B40009D69DB691D402D0C3FF417AF04F5B46877
:104B5000DFF890B0029104F2F45600274FF00109FB
:104B6000C24608E06D0807F1010706F1040608F1E6
:104B7000280800F09181EA07F4D53068D4F8B01520
:104B8000836849690B40D9B2DB0740F1708194F822
:104B9000A335C0F80890012B07D10169D8F87C3300
:104BA000C1F312015B1AC8F88C33DBF8143FF9B279
:104BB0005046984794F8A335012BD3D1002FD1D17B
:104BC00094F8B136052BCDD1D4F8F43507491961E5
:104BD0000749596119684FF080211960C2E700BF89
:104BE0001833002000000020B838002018000860AA
:104BF000843E0020D4F8B055D4F8B825AB68C3F390
:104C00004103022B136814BF0021032161F30A033F
:104C100013606B6843F4807306A86B60FEF7C2F8FC
:104C2000D4F8AC25079ED36823F47053D360A868EA
:104C300010F0060FC0F3410100F03C819F49A048ED
:104C40003144814240F2AE819E48A6F57401A1F53F
:104C50001051814240F2AA819B499C4831448142D3
:104C6000C0F0A8819A48A6F18C71A1F54341814218
:104C700040F2A4819749984831448142C0F0A28112
:104C80009649974831448142C0F0A0819548A6F1E9
:104C9000B771A1F558518142C0F0A0819249934863
:104CA00031448142C0F09681914892493044884213
:104CB00034BF062005204025012160F38D23D360F9
:104CC0004FF4005384F8A215A4F8A45553617AE672
:104CD00000238DF8133094F8B2368DF81330864BDC
:104CE0008648D3F8283F9847D4F8B035D4F8AC2597
:104CF000986894F8AA354FF400615161002B3FF495
:104D00004EAEC3077FF54BAE94F8B536012B7FF45A
:104D100046AE9DF81330032B7FF441AED4F8AC3689
:104D200077491A6842F001021A601A6842F00302D9
:104D30001A600B6943F006030B6130E6D4F8B065E6
:104D4000D4F8AC157368002723F00103736005974E
:104D5000059B43F020030593059B67F38A13059396
:104D6000059B0B61674BBC460A690592013B02D06B
:104D7000059A9206F8D494F8A12552B1624B03EB40
:104D8000820EFF2253F8040F8260D86B7345826055
:104D9000F8D10B2363F3070763F3070C4FF0FF33DE
:104DA000B3614FF00113F3617761C6F810C0336847
:104DB000564823F4FE63336094F8A325D4F8F43501
:104DC000012A18616FD04FF480534B614A4B4B4816
:104DD000D3F8243F9847F3E5D4F8AC359A6922F02C
:104DE00010029A611A6AC2F34340022802F00F01CE
:104DF00000F09080062812D101EB810104EBC10183
:104E0000D4F87066D1F82C09C2F30A121044326843
:104E1000C4F86C2B3268C4F8702BC1F82C099A695D
:104E200042F010029A61C8E594F8AA353BB1D4F873
:104E3000AC26136823F0030060F307031360D4F873
:104E4000B0252D4B2D48D3F82C5F5368029123F0E9
:104E500001035360A847D4F8AC3502994FF00042E3
:104E60005A6197E5010707D5082393605BE68A0737
:104E700007D50223836075E6C3060FD51023936020
:104E800051E60B077FF56EAEDBF81C3F50469847A6
:104E900033680821996065E602996EE5410679D587
:104EA000402393603FE61A4A5A611A684FF0802205
:104EB0001A6088E74FF400750920FEE6401E1BFFCC
:104EC0003F420F00DFC810002013FBFE20D6130066
:104ED000FF69180000D3CEFE40771B00C05BB3FE15
:104EE000C091210040AC2700C01D6AFE40E13300A4
:104EF000803C36FEE09C410000000020B8380020D5
:104F000000ED00E0410D0300CC38002018000860DF
:104F1000843E002047F6F070104280D0C2F30A129F
:104F200001EB810004EBC00002F1030C5FEAAC0C62
:104F3000D0F82069D4F870E64FEA810818BF002045
:104F400006D00130DEF8007046F8047B8445F8D1C5
:104F5000414404EBC101D1F820091044C1F82009F3
:104F6000D1F82C091044C1F82C0958E7BBF1000F07
:104F70007FF47EAD94F8B136042B7FF479ADD4F88C
:104F8000F435184A1A61184A5A611A684FF080229B
:104F90001A606DE5830758BF81467FF569AD02232E
:104FA0009360C0E5012140250E2086E601214025C1
:104FB0000D2082E6012140250C207EE601214025BE
:104FC0000B207AE6012140250A2076E601214025C2
:104FD000092072E60121402507206EE601214025C7
:104FE00008206AE618000860843E002070B5194D5C
:104FF000194BC5F8943B194B85F8A01B002683F884
:10500000276905F69433C0E954330D23C0F85831AD
:1050100040F201130446C0F85C6100F5A271A0F8EB
:10502000443171F067FE1F23C4E9EC36E3780122B6
:1050300005F2C4459342C4F8A853A4F89C2308BFC2
:10504000C4F8AC5304F567712046BDE8704071F0B8
:1050500051BE00BF18330020555342532022002078
:10506000F0B50B7813F0600283B004462BD0202AF1
:1050700030D14A78FE2A39D0FF2A2DD14A88002A19
:105080003BD1CA88002A38D11F0636D46148624B0A
:1050900080F82729C4F8B423E278012183F8E414C6
:1050A000A4F89C1303F2C4431F21012AC4F8B013CF
:1050B000C4F8A83304F5677108BFC4F8AC332046C0
:1050C00071F018FE06E04B780A2B1AD00B2B08D093
:1050D000012B2AD0002002E071F09EFC022003B0D8
:1050E000F0BD4D4B4A8883F8A52BF3E74F8827B9CD
:1050F000CD88012D01D11B0642D4204671F08CFCD5
:10510000ECE7022180F811114FF48071A0F81C1116
:1051100042490123C0E94A11C0E94E33C0E94C328B
:1051200000F58E7171F084FDD4E78B88C0681E068F
:10513000DDB244D40192019A394B42F0100201923F
:10514000019A026102690192013B02D0019AD206E2
:10515000F8D4314E2946204671F0D0FC294696F805
:10516000E45402234022204671F0F8FC022DB1D114
:105170008121204671F088FC002386F8E434A9E7F9
:10518000254ED6F8FC349B699847C0B286F8A40B2C
:105190000028B2D0022306F6A43684F811314FF469
:1051A0008073C4E94E55C4E94A66C4E94C57A4F873
:1051B0001C3104F58E71204671F03AFD8AE70092A9
:1051C000009A174B42F020020092009A65F38A126F
:1051D0000092009A026102690092013B02D0009A9B
:1051E0009106F8D40C4E2946204671F087FC2946DA
:1051F00096F8E45402234022204671F0AFFC022DC1
:10520000B6D0012D3FF466AF01212046FFF7EEFE38
:1052100060E700BF2022002018330020BD3E0020A0
:10522000410D030010B50D4B93F82739022B07D021
:10523000033B012B02D80021FFF7D8FE002010BD50
:10524000074B93F8D114044671F008FE0028F5DAF4
:1052500001212046FFF7CAFEF0E700BF2022002010
:1052600018330020F8B53F4C94F8276905467EB105
:10527000012E01D00020F8BD3B4B93F8D11471F002
:10528000EDFD0028F6DA31462846FFF7AFFEF1E7DC
:10529000354FB0F8B433D7F8CC24C7F89C2B1F2B6C
:1052A000D7F8C824C7F8982B08D1304BD7F8C424B6
:1052B0009A4203D197F8D114012919D997F8A63B3E
:1052C0005A1CD2B207EBC303042A18BF16460522A4
:1052D00083F8A82B4FF400522846C3F8AC2B0223C6
:1052E00087F8A66B87F8E434FCF7B4F80020F8BD23
:1052F00097F8D234013B0F2BE0D871F0AFFD0028B6
:1053000027DB94F82739013B022BB3D9B7F8C83B08
:105310001BB3042284F82729154AC5F85C61C5E946
:105320005422D7F8CC2487F8A06B934228BF1346A9
:10533000D7F89C2BC5F8583140F20111A5F844115B
:10534000D21A05F5A2712846C7F89C2B71F0D2FC41
:1053500090E72846FCF77EF88CE719462846FFF7C9
:1053600045FE87E720220020183300205553424392
:10537000706D002010B54FEA511E024400EB8E0CF8
:10538000624529D901F01F034FF0FF3450F82E1069
:1053900004FA03F30B4093FAA3F3B3FA83F3DBB2FB
:1053A000202B16D10CF104018A4202D817E08A4260
:1053B00012D98C460431DCF8003093FAA3F3B3FA27
:1053C00083F3DBB2202BF2D0ACEB000C03EBCC0070
:1053D00010BD03EB4E1010BD4FF0FF3010BD204646
:1053E00010BD00BF0369416890ED067AF0B4C56A4C
:1053F0003B4E876853EA010204BFD6F87814416037
:105400006A1C30EE077A0133012A80ED067A0361C7
:10541000C26241D090ED075AD0ED096AD6F87844BF
:1054200007EE902A70EE455AB8EEE76A611AC5EEAB
:10543000867AB94277EE857A30EE670AC0ED087A4F
:10544000E5EE806AC0ED077AC0ED0A6AC0ED096A30
:1054500001D8F0BC7047012A2ADD07EE905AF8EE19
:10546000E77A86EEA76AB5EEC06AF1EE10FA1FDBA6
:10547000F1EEC67AF4EE677AF1EE10FA18D6D0EDB6
:10548000056AF4EEE76AF1EE10FA14D5037BF3B186
:105490000323F0BC03707047D6F8782480ED080A27
:1054A000521ABA424FF0000180ED070A4162D0D98A
:1054B000DFED0C7AE3E707EE903AF8EE677A022325
:1054C000C7EE276AF0BC0370C0ED066A7047D6F8D5
:1054D00078144160002203618261C362B9E700BFB2
:1054E0001833002000000000DFED504A10B584465C
:1054F00000F1480E0346B1EC017AD3ED067ADA6A80
:1055000077EE877A0132012AC3ED067ADA6255D046
:1055100093ED075A93ED096A07EE902A77EE455A04
:10552000F8EEE77AC5EEA76A76EE857AF0EE466A7F
:1055300037EE677AC3ED087AE5EE876AC3ED0A6A4B
:10554000C3ED077AC3ED096A18337345D3D1384CDC
:105550004168D4F878240369521A816801338A4279
:1055600003612AD990ED056A00F1300EDCF82C2099
:10557000DCED0A6A012A02F1FF3126DD07EE901AFE
:10558000F8EEE77A86EEA77AB5EEC07AF1EE10FA79
:105590001BDBF1EEC77AF4EE677AF1EE10FA14D65F
:1055A000E645B4EEE76A0CF1180C16D0F1EE10FAED
:1055B000DCD5037B6BB30323037010BDF0EE477A99
:1055C000F0EE646A83ED087ABAE7DFED187AE64513
:1055D000B4EEE76A0CF1180CE8D1F1EE10FAE8D459
:1055E00007EE903AD0ED066A90ED0C7AD0ED125AA3
:1055F000F8EE677A022386EEA76A0370C7EE276A81
:1056000085EEA77A80ED066AC0ED0C6A80ED127A0D
:1056100010BD0022D4F87814416003618261C36236
:10562000026343648264C36510BD00BF00000000D4
:1056300018330020B0EEC06AF0EEE05AF4EEC65A1D
:10564000F1EE10FAF0EE407A0EDCB5EE400AF1EE23
:1056500010FA4BD0F4EEC65AF1EE10FAF0EE466AAC
:1056600050D5B0EE655A03E0F0EE656AB0EE465AEA
:1056700085EE267A9FED252A9FED253A9FED254A56
:10568000DFED254ADFED252ADFED253ADFED256A3E
:10569000A7EE023AE7EE223AA7EE034AB7EE005A27
:1056A000E7EE044AA7EE235AE7EE246AF4EEC65A60
:1056B000B1EE667A87EE050AF1EE10FA48BF9FED6B
:1056C0001A7AF5EEC00A48BF37EE400AF1EE10FA3A
:1056D00048BF9FED167AF5EEC07A48BF37EE400A14
:1056E000F1EE10FA48BFB1EE400A7047DFED107AD4
:1056F0009FED100AF5EEC00AF1EE10FA58BFB0EEB9
:10570000670A7047B0EE465AB2E700BF39094E3D0E
:10571000E3B59EBE88FA16BE45FE7FBF99FB243FC7
:1057200069A2163EA7DFA8B4DB0FC93FDB0F4940D3
:10573000A7DFA834DA0F494091ED007AD0ED047A62
:1057400090ED054AD0ED064A90ED075AD0ED085A83
:1057500090ED096AD0ED0A6AE7EE077AF7EE003AB3
:10576000C0ED047A91ED007AD1ED017AA7EE274AD7
:1057700090ED0B7A80ED054A91ED024A91ED003AE9
:10578000D0ED0C7AE3EE044AC0ED064AD1ED004AB2
:1057900035EE245A80ED075AD1ED014A91ED005AB9
:1057A000E4EE855AC0ED085AD1ED015AA5EEA56A7E
:1057B00080ED096AD1ED015A91ED026AE5EE866A43
:1057C000C0ED0A6AD1ED016A37EE267A80ED0B7AD8
:1057D000D1ED026A91ED007AE6EE877AC0ED0C7A9F
:1057E00091ED026AD1ED016AD0ED0D7A90ED0E7A5D
:1057F00090ED0F4AD0ED104A90ED115AD0ED135AAA
:10580000E6EE267A75EEA35AC0ED0D7AD1ED026A66
:10581000D0ED127A90ED006AA6EEA67AD0ED016A7C
:1058200080ED0E7A91ED027A34EE074A90ED027A1D
:1058300080ED0F4A91ED004A74EE844AC0ED104AA3
:10584000D1ED014A35EE245A80ED115A91ED025AFC
:10585000C0ED135A77EE857AC0ED127AD1ED017A58
:10586000D1ED005A91ED025A67EEA77AE5EEA57ADE
:10587000E5EE057AA5EEA76A80ED006A91ED016A72
:10588000E6EE276AC0ED016AD1ED026AA6EEA77ABC
:1058900080ED027A90ED037A77EE277AC0ED037AF5
:1058A000704700BF2DE9F04F4FF0000989B08646E0
:1058B00000F110050646034600F130080746484649
:1058C0002C46CDF80CE08B469C46B24600283CD1D5
:1058D0000CF1040CA445FBD1032800F1010151D0C7
:1058E0009C46AA46029398B1DCED047A0192AAEB99
:1058F0000903B6467246F3EC016A92ED007AE6EED1
:10590000C77A53450EF1100ECCED047AF2D1019A0C
:10591000DCED046A15ED047AC6EE877A0CF1100C02
:10592000C4450AF1100ACCED007ADCD1029B0436A2
:105930001433084608F1040814351034103709F1FF
:1059400004099C46B2460028C2D0DCED007A0192E0
:10595000D64639467246F1EC016A92ED007AE6EEDF
:10596000C77A99420EF1100ECCED007AF2D10CF10B
:10597000040CA445019A0AF1040AE6D1032800F1B7
:105980000101ADD1DDF80CE00023594604930593E5
:10599000069307937646774604AD0020F2EC017A31
:1059A000E5EC017AB0B104AC3B46B4EC017AF3EC1F
:1059B000016AE6EEC77AB34245ED017AF5D10130CE
:1059C00004280BD0F2EC017A10371436E5EC017A9A
:1059D0000028E8D1103714360120DFE708AD75ED57
:1059E000017A10310EF1400E04287446A1F1040230
:1059F00041ED017A1ED07346F3EC016AB1EC017AF5
:105A0000E6EEC77AA342C2ED007AF5D15EED016AF7
:105A100087EEA67A013882ED007A17D0AEF1140E27
:105A2000103C114675ED017A0428A1F1040241ED04
:105A3000017AE0D15EED016A87EEA67A103CAEF104
:105A4000140E032001ED017A1146EBE709B0BDE821
:105A5000F08F00BFDFED297AB4EEE70AF1EE10FA1D
:105A600028DD9FED277A30EE470AB4EEE70AF1EE23
:105A700010FAF8DCDFED237AB4EEE70AF1EE10FA63
:105A80002FDD30EE670A37EEC00A60EE007A9FED38
:105A90001E7A9FED1E6ADFED1E6AA7EE876A9FEDF4
:105AA0001D7AE7EE866A60EE275AA7EEA67AA5EE83
:105AB000870A7047DFED187AB4EEE70AF1EE10FAC4
:105AC000D8D59FED0F7A30EE070AB4EEE70AF1EE73
:105AD00010FAF8D4DFED0B7AB4EEE70AF1EE10FA23
